:1000000008308A0000280000D4224D283A102532FA
:10001000A0212010201020102000C6204E1DA02757
:100020004E100000C6204E1DA02746230001542478
:10003000D22253244F26441DA01264102010200009
:100040005230840083130008031933280630F80067
:10005000F701F70B2928F80B28287B30F700F70B5E
:100060002F28800B2628080059183828081239280C
:100070000816831608128312D918402888124128BE
:10008000881683168812831259194828081349289C
:100090000817831608138312D9195028881351287A
:1000A0008817831688130000831208158316081119
:1000B0000230F700F70B5A285D2800008312081160
:1000C0008316081183120800DA018316081600301F
:1000D0008312081A0130DA0483168816003083125E
:1000E000881A0130F7000310F70D7708DA04831639
:1000F000081700308312081B0130F700F70DF70DC9
:10010000FC30F7057708DA0483168817003083126D
:10011000881B0130F700F70DF70DF70DF830F705E4
:100120007708DA045A08F800080083160811081046
:1001300088108312081083160810081688160817EE
:1001400088178312881483168810000083120815FC
:10015000831608110000831264207808D900081162
:100160008316081100008312081583160811B82899
:10017000B9280000831264207808D800081183167B
:10018000081108128812081388138312590EF700F9
:10019000F030F70577085804F8007808D800D81F21
:1001A000D32883169D28D608031DD8280810D928DF
:1001B0000814831608100000831288108316881014
:1001C000000083120811831608118312570ED800FD
:1001D0000F30D8055808D900342057080F39D800F7
:1001E000D900342008002830CC000C30CD0001307C
:1001F000CE000630CF0008118316081183120810B4
:10020000831608108312881083168810081288122B
:10021000081388130811081088100F308312D200B9
:1002200020200130CB004B08033C031C1F29033066
:10023000D90034200530D2002020CB0A1329023007
:10024000D90034200530D2002020CB014B08033CDC
:10025000031C36294C304B07840083130008D00060
:10026000D6015008D7009520CB0A26298A150A12F4
:10027000472803178D0183168C130C1483120C0866
:10028000F80003138A150A124A288E30F7004C082A
:10029000F8004B08F900FA01F808031D59297908FC
:1002A000F800F9010830F702F808031D5929F70191
:1002B00061290310F81B6029F90DF80DF70359297E
:1002C000F8138A150A128C2880308318E906EE018B
:1002D000EF016508ED006908ED0664080319542A6A
:1002E000EC00F700680803195D2AEC020319F929EC
:1002F000031CB7296908F200F2176A08F1006B08BD
:10030000F000EF010310F20CF10CF00CEF0CEC0B11
:100310008129ED1F8E296E14712A6E106C106E16D5
:10032000673084008313862A6E12ED1BA1296C1C92
:10033000AC29F20CF10CF00CEF0CF70A03196C2A43
:10034000AC29F21BAF290310EF0DF00DF10DF20DEA
:10035000F70303196C2AA1296E17192A6E13650871
:10036000ED00ED1FB529F217652AF213652A68081A
:10037000EC00F7006408EC026508F200F21766086A
:10038000F1006708F000EF010310F20CF10CF00C23
:10039000EF0CEC0BC329ED1FD029EE14712AEE10DF
:1003A0006C10EE166B3084008313862AEE12ED1B60
:1003B000E3296C1CEE29F20CF10CF00CEF0CF70A9F
:1003C00003196C2AEE29F21BF1290310EF0DF00D31
:1003D000F10DF20DF70303196C2AE329EE17192A20
:1003E000EE136908ED00ED1FF729F217652AF213E5
:1003F000652A6908F200F2176A08F1006B08F0003C
:10040000ED1F062AF2136E15712A6E11EF016C10A2
:10041000673084008313862AED1B2F2A6508ED00C0
:100420006C1C192AF20CF10CF00CEF0CF70A0319F2
:100430006C2AEF1F2A2AF00A031D2A2AF10A031D3B
:100440002A2AF20A031D2A2AF20CF10CF00CF70AF0
:1004500003196C2A6E1BAE29EE1BF0294E2A803040
:10046000F206F21F372A712A6908ED00442A65084E
:10047000ED00F208031D442AF108031D442AF00888
:10048000031D442AF701652AF21B4E2A0310EF0DC3
:10049000F00DF10DF20DF70B442A6C2AED1F522AD4
:1004A000F217652AF213652A6808F7006908F20056
:1004B0006A08F1006B08F000652A6408F700650817
:1004C000F2006608F1006708F0007208F800710891
:1004D000F9007008FA00A42AF701F801F901FA01FD
:1004E000A42AEF01F009F109F209EF09EF0A031D4F
:1004F0007F2AF00A031D7F2AF10A0319F20A6E18F7
:100500008D29EE18CF296E19052A342A0008F00724
:10051000031C902AF10A031D902AF20A03196C1495
:1005200084030008F107031C982AF20A03196C14CB
:1005300084030008801F803AF20703186C146E1AB7
:100540009429EE1AD6290C2A0800640803196A2B8C
:10055000F000680803196A2BF002031CB42A7F30EC
:10056000F00703186A2BBA2A8130F002031C6A2BA9
:1005700003196A2B7008F700F801F901FA01EF017D
:100580006508EE00EE176608ED006708EC0019300C
:10059000F0006B08EC020318DD2A0130ED020318AD
:1005A000DD2AEE020318DD2AEF020318DD2AEF0A26
:1005B000EE0AED0A6B08EC070F2B6A08ED02031830
:1005C000F82A0130EE020318F82AEF020318F82A7D
:1005D000EF0AEE0A6A08ED076B08EC07031C0F2B05
:1005E000ED0A031D0F2BEE0A031D0F2BEF0A0F2B35
:1005F00069088038EE0203180E2B0130EF02031851
:100600000E2BEF0A69088038EE076A08ED07031C15
:10061000EC2AEE0A031DEC2AEF0AEC2A7A14F00BFE
:10062000122B1D2B0310EC0DED0DEE0DEF0D031035
:10063000FA0DF90DF80DF10DC92A711C252B0310C7
:10064000F80CF90CFA0CF10C282BF70303196A2BA0
:10065000F11B512B0310EC0DED0DEE0DEF0D6B08A2
:10066000EC0203183D2B0130ED0203183D2BEE0286
:1006700003183D2BEF02031C602B6A08ED020318E0
:10068000482B0130EE020318482BEF02031C602BAD
:1006900069088038EE020318512B0130EF02031C69
:1006A000602BFA0A031D602BF90A031D602BF80A60
:1006B000031D602BF70A03196A2BF80CF90CFA0CCE
:1006C0006508F0006908F006F01F682BF8176E2B1C
:1006D000F8136E2BF701F801F901FA010800600820
:1006E0000319DF2BE80064080319DF2BE807031860
:1006F000802B7F30E802031CDF2B0319DF2B842BB8
:100700008130E8070318DF2B6808F700F801F901CA
:10071000FA016108EC00EC176208EB006308EA00DC
:100720001830E800E9016A1CAD2B6708FA07031CC2
:100730009F2BF90A031D9F2BF80A0319E917660876
:10074000F907031CA62BF80A0319E9176508E2004C
:10075000E2176208F8070318E917E90DF80CF90C1D
:10076000FA0CEC0CEB0CEA0C0310E80B922B0130AA
:10077000F7070318DF2BF81BC42BEC0DFA0DF90D4E
:10078000F80DF7030319DF2BEC1FD52BFA0A031D15
:10079000D52BF90A031DD52BF80A031DD52BF80C10
:1007A000F90CFA0CF70A0319DF2B6108E900650858
:1007B000E906E91FDD2BF817E32BF813E32BF7010C
:1007C000F801F901FA0108008E30F7006108F8001D
:1007D0006008F900FA01E11FF22BF809F909F90A9A
:1007E0000319F80AF808031DFF2B7908F800F9012E
:1007F0000830F702F808031DFF2BF701082C03103F
:10080000F81B062CF90DF80DF703FF2BE11FF81369
:1008100008004E08D2004D08D1004C08D0004B080B
:10082000CF005208E3005108E2005008E1004F08F1
:10083000E000E701E601E5017F30E4006108E8003F
:100840006508E806E81F292C03110310E11B0314B7
:100850005C2C6108E8006408E9006008E9020319FB
:10086000372CE81F5C2C0308013A83005C2C6508D8
:10087000E9006108E9020319432CE81F5C2C030816
:10088000013A83005C2C6608E9006208E90203195A
:100890004F2CE81F5C2C0308013A83005C2C67088E
:1008A000E9006308E90203195B2CE81F5C2C0308CC
:1008B000013A83005C2C03100319DD2DE1014F3058
:1008C000E000600884008313611883177E30800085
:1008D00083145208E7005108E6005008E5004F086D
:1008E000E400EB01EA01E9017F30E80064217A08C5
:1008F000E3007908E2007808E1007708E00083105F
:100900005208E7005108E6005008E5004F08E400EF
:10091000EB01EA01E9017F30E80064216308E700A8
:100920006208E6006108E5006008E4007A08EB0070
:100930007908EA007808E9007708E800A5227A0833
:10094000D2007908D1007808D0007708CF0052088B
:10095000E3005108E2005008E1004F08E0005208AF
:10096000E7005108E6005008E5004F08E4006F2357
:100970007A08DE007908DD007808DC007708DB0003
:100980009930E3004730E2008A30E1007F30E00038
:100990005E08E7005D08E6005C08E5005B08E4002F
:1009A0006F237A08E3007908E2007808E10077080D
:1009B000E00083107A08E7007908E6007808E5008F
:1009C0007708E400EB01EA01E9018030E8006421E6
:1009D0007A08D6007908D5007808D4007708D300C3
:1009E0004C30E300F330E2003A30E1007B30E000CD
:1009F0005E08E7005D08E6005C08E5005B08E400CF
:100A00006F237A08E3007908E2007808E1007708AC
:100A1000E00083107A08E7007908E6007808E5002E
:100A20007708E4002B30EB009D30EA00DF30E9006E
:100A30007E30E80064217A08DA007908D900780865
:100A4000D8007708D7005A08E3005908E200580890
:100A5000E1005708E0005E08E7005D08E6005C087A
:100A6000E5005B08E4006F237A08E3007908E20000
:100A70007808E1007708E00083107A08E700790839
:100A8000E6007808E5007708E400EB01EA01E901F7
:100A90007F30E80064217A08DA007908D900780804
:100AA000D8007708D7005208E3005108E200500848
:100AB000E1004F08E0005608E7005508E60054083A
:100AC000E5005308E4006F237A08E3007908E200A8
:100AD0007808E1007708E0007A08E7007908E60086
:100AE0007808E5007708E4005A08EB005908EA00A6
:100AF0005808E9005708E800A5227A08D6007908C6
:100B0000D5007808D4007708D300E1014B30E0002D
:100B1000600884008313611883177E300002DF00B1
:100B2000DF1FA32D5F08003CE101E000E01BE103B3
:100B3000E4237708D7007808803AD8007908D900EC
:100B40007A08DA00B12DE1015F08E000E01BE10363
:100B5000E4237A08DA007908D9007808D800770801
:100B6000D7005A08E3005908E2005808E100570886
:100B7000E0001830E7007230E6003130E5007E30EA
:100B8000E4006F2383105608E7005508E600540878
:100B9000E5005308E4007A08EB007908EA007808D9
:100BA000E9007708E80064217A08D6007908D500C2
:100BB0007808D4007708D300E12DD601D501D401FF
:100BC000D3015308F7005408F8005508F9005608F7
:100BD000FA008A150A1242298E30F7004B08F702F4
:100BE0004C08F9004D08F800F917F7080319032E0F
:100BF0000310F908031DFF2DF8080319032EF90C43
:100C0000F80CF70BF82DCC1F0A2EF809F909F80A91
:100C10000319F90A8A150A12E429530B102E132E10
:100C20004030D400142ED40101305202D4075408AD
:100C30008038D500D6015508D70095200800510806
:100C4000073A03192D2E0B3A0319322E063A0319CF
:100C50003A2E023A0319402E452E0130D200D3001D
:100C60000D264A2ED6010130D70095200230D20041
:100C700020204A2E0130D2000230D3000D264A2E09
:100C8000D6011030D70095204A2E0130D6005108E9
:100C9000D700952008000B08CC008B138316031790
:100CA0008C170C140000000083120313CC1B8B174D
:100CB0000318822E03170C087F390313CC00031787
:100CC0000D080313CD0003170F080313CE004C08C3
:100CD000D1001F264D0803178D0003134E0803177C
:100CE0008F0003130B08CF008B13831603178C1789
:100CF0000C140000000083120313CF1B8B17CB0BC7
:100D0000822EA12E03170C0D0E0D7F390313CC007C
:100D100003170D080313CD0003170F080313CE00AC
:100D20004C08D1001F264D0803178D0003134E08F1
:100D300003178F008D0A03198F0A03100313CB0BBF
:100D40004B2E08005208F80151020318AA2E510830
:100D5000F700B62EF7010830D300D10DF70D520879
:100D600077020318F700F80DD30BAD2E08002030E2
:100D70004C1E3030CD004B08F700CB1FC72EF709B3
:100D8000F70A7708CB002D30CD00CC174C144B0858
:100D9000D1006430D200A2267708CB00303078072B
:100DA000CE004B08D1000A30D200A226303077079F
:100DB000D00030307807CF004D08F70030304E02B9
:100DC0000319E62ECC14CC1B4C15FA2E4D08CE0080
:100DD0002030CD0030304F020319F22E4C14CC1BC2
:100DE000CC14FA2E031D4C14031DFA2E4E08CF000E
:100DF0002030CE004C19012FCC18042F4C18072F8F
:100E00000A2F4D08D1001F264E08D1001F264F087B
:100E1000D1001F265008D1001F2608000B08CB0068
:100E20008B13831603178C170C1400000000831219
:100E30000313CB1B8B1703170C087F390319622F81
:100E40000313CB0003170D080313CC0003170F087F
:100E50000313CD004B08D1001F264C0803178D004B
:100E600003134D0803178F0003130B08CE008B13D9
:100E7000831603178C170C14000000008312031351
:100E8000CE1B8B1703170C0D0E0D7F390319622F24
:100E90000313CB0003170D080313CC0003170F082F
:100EA0000313CD004B08D1001F264C0803178D00FB
:100EB00003134D0803178F008D0A03198F0A0313BC
:100EC0000E2F0317031308000B08F7008B130317EB
:100ED0008D0103134B0803178C0083168C130C151C
:100EE00055308D00AA308D008C148C18752F0C1184
:0A0EF0007708831203138B04080037
:1010000003081F398300A2013230A300A70140303A
:10101000A6005330A5008A30A400AB014030AA00DE
:101020001C30A9008C30A800AF01AE014830AD00E3
:101030008330AC00B3014030B2001C30B1008C30C2
:10104000B000BE01BF01FF30C00083161F149F1403
:101050001F159F1107309C0083138312A001A1016B
:1010600083161F1383121F179F1783169F13831254
:101070001F1483161F109F101F159F110030F800BA
:1010800083121F08C73978049F008A11F3288A1534
:101090008A1139298A157808A3002308093C031806
:1010A00055282308643C031857283230A300C10197
:1010B0004108043C031C74280310410D343E840095
:1010C00083131F151F1962281E08FA0083161E08B5
:1010D0008000840A7A0880000A308312D2008A11C4
:1010E00020208A15C10A5828C501C401C301C201C4
:1010F000C1014108043C031CB6280310410D343ED5
:1011000084008313840A0008FA0084030008CB00DB
:101110007A08CC008A1145298A15CC010408CB0035
:101120004C10831B4C1483104508E7004408E6006C
:101130004308E5004208E4007A08EB007908EA0079
:101140007808E9007708E8008A1164218A154B08BD
:10115000840083134C1883177A08C5007908C400EB
:101160007808C3007708C200C10A79284508E7005B
:101170004408E6004308E5004208E400EB01EA0108
:101180002030E9008130E8008A11A5228A157A080A
:10119000C5007908C4007808C3007708C200E701D9
:1011A000C030E6007F30E5008830E4004508EB0001
:1011B0004408EA004308E9004208E8008A11A52231
:1011C0008A157A08CE007908CD007808CC00770817
:1011D000CB0083144E08E7004D08E6004C08E500FC
:1011E0004B08E400EB01EA01E9017F30E8008A11D5
:1011F00064218A157A08C5007908C4007808C300FC
:101200007708C2003308E7003208E6003108E5003D
:101210003008E4004508EB004408EA004308E90010
:101220004208E8008A11A5228A157A08C5007908C3
:10123000C4007808C3007708C2004508E7004408E6
:10124000E6004308E5004208E4002B08EB002A080A
:10125000EA002908E9002808E8008A11A5228A1571
:101260007A08C9007908C8007808C7007708C6005E
:101270004908CE004808CD004708CC004608CB00FE
:101280008A11092C8A157A08C9007908C8007808DB
:10129000C7007708C6004908E7004808E600470885
:1012A000E5004608E4002708EB002608EA002508C8
:1012B000E9002408E8008A11A5228A157A08C900E5
:1012C0007908C8007808C7007708C60083102F087F
:1012D000E7002E08E6002D08E5002C08E400333076
:1012E000EB009330EA000830E9008730E8008A110B
:1012F00064218A15E701E601E5017F30E4007A0800
:10130000EB007908EA007808E9007708E8008A111C
:10131000A5228A1583104908E7004808E600470817
:10132000E5004608E4007A08EB007908EA0078084E
:10133000E9007708E8008A1164218A157A08C90053
:101340007908C8007808C7007708C600E701E601F9
:10135000E5017F30E4004908EB004808EA0047084F
:10136000E9004608E8008A11A5228A157A08C90012
:101370007908C8007808C7007708C60083144908B0
:10138000E7004808E6004708E5004608E400333077
:10139000EB009330EA000830E9008730E8008A115A
:1013A00064218A157A08C9007908C8007808C7003E
:1013B0007708C6004908CE004808CD004708CC0091
:1013C0004608CB008A11EC2D8A157808CA00401413
:1013D00040088316870083120718FD296430D20065
:1013E0008A1120208A154014400883168700831232
:1013F0000718FD292208013CA200A208031D9B2A10
:101400000130D200D3008A110D268A15043003174B
:101410008D0000308F00031006300313CB008A11BB
:101420004B268A154A08CB001830CC008A11B72603
:101430008A15083003178D0000308F000310093023
:101440000313CB008A114B268A1523084A02031C7A
:10145000662ABE08031D512A0130BE0083160610FD
:101460008312061483168610831286149630D200D7
:101470008A1120208A158316861083128610643004
:10148000D2008A1120208A158316861083128614B2
:101490009630D2008A1120208A1583168610831276
:1014A000861083160610831206140130D200023013
:1014B000D3008A110D268A150D3003178D000030D8
:1014C0008F008A1103130E278A15812A3E0B692A81
:1014D000BE0183160610831206108316861083122F
:1014E00086100130D2000230D3008A110D268A15F1
:1014F000123003178D0000308F008A1103130E275E
:101500008A1523084A02CB004B081D3C0318922A77
:10151000BF08031D912A0130BF0083168610831275
:1015200086149A2ABF0803199A2ABF0183168610C7
:1015300083128610F22A0130D200D3008A110D26C0
:101540008A15173003178D0000308F0003100B3001
:101550000313CB008A114B268A152308CB001830C1
:10156000CC008A11B7268A151D3003178D00003074
:101570008F00031404300313CB008A114B268A1505
:10158000C01440088316870083128718D92A643054
:10159000D2008A1120208A15C014400883168700C3
:1015A00083128718D92AA30A2308CB008A1164273B
:1015B0008A15401540088316870083120719F22AFE
:1015C0006430D2008A1120208A1540154008831605
:1015D000870083120719F22AA3032308CB008A117C
:0815E00064278A1557286300F7
:02400E00323F3F
:00000001FF
;PIC16F877A
;CRC=4A40  CREATED="07-Dec-24 13:56"
